:020000040800F2
:100000000045002081020008FD550008DD4B000876
:10001000F95500081D1300088D9500080000000028
:10002000000000000000000000000000ED6F00086C
:1000300039130008000000000D560008F16F000899
:100040009B0200089B0200089B0200089B0200081C
:100050009B0200089B0200089B0200089B0200080C
:100060009B0200089B0200089B0200089B020008FC
:100070009B0200089B0200089B0200089B020008EC
:100080009B0200089B0200089B0200089B020008DC
:100090009B0200089B0200089B0200089B020008CC
:1000A0009B0200089B0200089B0200089B020008BC
:1000B000BD7000089B0200089B0200089B0200081C
:1000C0009B0200089B0200089B0200089B0200089C
:1000D0009B0200089B0200089B0200089B0200088C
:1000E0009B0200089B0200089B0200089B0200087C
:1000F0009B0200089B0200089B0200089B0200086C
:100100009B020008AD6400089B0200089B020008E7
:100110009B0200089B0200089B0200089B0200084B
:100120009B0200089B0200089B02000821130008A4
:100130009B0200089B0200089B0200089B0200082B
:100140009B0200089B0200089B0200080156000861
:100150009B0200082D1300089B0200089B02000868
:100160009B0200089B0200089B0200089B020008FB
:100170009B0200089B0200089B0200080000000090
:10018000D14B00089B02000800F002F800F068F86C
:100190000AA090E8000C82448344AAF10107DA45E2
:1001A00001D100F05DF8AFF2090EBAE80F0013F0CC
:1001B000010F18BFFB1A43F001031847F41D040098
:1001C000141E04000A4410F8014B14F00F0508BF78
:1001D00010F8015B240908BF10F8014B6D1E05D013
:1001E00010F8013B6D1E01F8013BF9D1641E03D0EC
:1001F000641E01F8015BFBD19142E4D3704700001B
:100200000023002400250026103A28BF78C1FBD81F
:10021000520728BF30C148BF0B607047662913F0F2
:10022000E587642900F06681782900F09F817329B1
:1002300000F01986002070471FB513F0CAFF9DE833
:10024000030000F043FB00F084FA00F027FE0400F6
:100250000020002113F086FCE0601FBD10B510BD2A
:1002600000F03DFF1146FFF7E7FF11F0ADF900F098
:100270005BFF03B4FFF7F2FF03BC09F089F900004C
:100280000948804709480047FEE7FEE7FEE7FEE72A
:10029000FEE7FEE7FEE7FEE7FEE7FEE70448054966
:1002A000054A064B70470000A97000088901000844
:1002B000002100200045002000250020002500200E
:1002C000704770B5064600F0E5FA056806F10B00C8
:1002D00020F00704B4429CBF002070BD2B466A6822
:1002E000BAB11068A04210D304F1080188423CBFA3
:1002F0005068586007D35168101941601168091B94
:10030000016058601460101D70BD13465268002AC9
:10031000E7D12146284600F0C5FA0028DED170BD9D
:1003200070B50446051F00F0B5FA0068002C14BF34
:10033000446870BD002C18BFAC423CBF20466468C6
:10034000F8D301680A18AA4218BF456003D12A6889
:1003500005461144016028684119A1421CBF6C6028
:1003600070BD6168696021680844286070BD53EA07
:10037000020C00F069802DE9F04B4FF00006002BD5
:100380001FBFB3FA83F503FA05F424FA05F65E40BD
:1003900012BF1643B2FA82F502FA05F4C5F1200540
:1003A0001EBF22FA05FC44EA0C04203556EA044C30
:1003B0004FEA144418BF641C4FF000084FF00009C6
:1003C000904271EB030C39D3002919BFB1FA81F7C0
:1003D00001FA07F6B0FA80F700FA07F6C7F120072E
:1003E0001EBF20FA07FC46EA0C062037B6FBF4FCD9
:1003F000A7EB0507103F07F01F0BCBF120062CFAE7
:1004000006F60CFA0BFB44BFB3460026202FA4BF10
:100410005E464FF0000B5BEA060C08BF4FF0010B85
:1004200019EB0B0948EB0608ABFB027C06FB02CC80
:100430000BFB03CCC01B71EB0C01C1E70B46024662
:1004400041464846BDE8F08B13B5084318BF4FF04E
:10045000FF300146AFF30080BDE81C40704700004C
:100460000FB4044910B503AA029800F001FD10BCB6
:100470005DF814FBB41500200FB41CB5074B06AA99
:100480007B4469460090059800F0C3FC0020694653
:1004900000F0D2FC1CBC5DF814FB0000B5090000A4
:1004A00070B50C460546012A05D02878800600D58F
:1004B000EA69002302E0012305E05B1C934202D2BB
:1004C000E05C0028F9D1A869E618C01AA861286A7A
:1004D000184428622846AFF3008004E0D5E90121E2
:1004E00014F8010B9047B442F8D32846AFF30080CC
:1004F00070BD00002DE9F041064600241068752902
:10050000314616A510D0AFF30080002802DA404231
:1005100013A507E031688A0701D512A502E0490753
:1005200004D511A5012401E0AFF3008000210A22C7
:1005300006F1240709E0B0FBF2FCB0FBF2F302FB8A
:100540001C00303078541846491C0028F3D123464B
:100550002A463046BDE8F04100F0EEB90000000048
:100560002D0000002B0000002000000070B50446A4
:100570000D4621461068AFF300802188090502D599
:100580000F4A7A4402E00E4A7A440E32002104F106
:10059000240305E000F00F060009965D5E54491C37
:1005A0000028F7D120780023000704D5702D02D051
:1005B00009B1022311322046BDE8704000F0BCB9F9
:1005C0006A3C01002DE9F05F894604464FF0000ABD
:1005D000DFF824B1FB44C0F820A02046E16888473A
:1005E00000287DD0252806D0D4E901219047206A33
:1005F000401C2062F1E700255F462046E1688847FD
:100600002028064607DB312E05D2B81910F8200C39
:1006100008B10543F1E7A80701D525F00405C4F8A2
:100620001CA00027C4F818A02A2E09D0304613F0C9
:1006300091FA38B304EB8708303EC8F8186019E027
:1006400059F8041B204604EB87029161E168884752
:10065000012F064618D1E069002820DA25F0200590
:100660001DE0D8F8180000EB800006EB40003038A1
:10067000C8F818002046E1688847064613F06AFA71
:100680000028EED1012F0AD02E2E08D12046E16895
:1006900088477F1C0646022F45F02005C4DBA06971
:1006A000002803DA404245F00105A061E80701D0C7
:1006B00025F01005A6B1A6F14100192802D8203670
:1006C00045F400654A463146204625604D46FFF711
:1006D000A5FD60B1012807D0ED1D25F0070000E061
:1006E00007E000F1080978E705F1040975E73046ED
:1006F0007AE7206ABDE8F09F403C010010B504464F
:1007000003E00BF071FA401C09D014F8010B054905
:100710000028F6D1BDE810400A200BF065BA4FF072
:10072000FF3010BDB41500200B4910B5A1F17C02BB
:100730000A4CC2E93712372106E000EB104342F8B9
:100740002130074B00FB03400B1EA1F10101F4DC3B
:1007500010BD0120E8E700000C020020E119D66678
:10076000CD0D010040EA010310B59B070FD1042A0B
:100770000DD310C808C9121F9C42F8D020BA19BA6C
:10078000884201D9012010BD4FF0FF3010BD1AB1D1
:10079000D30703D0521C07E0002010BD10F8013B26
:1007A00011F8014B1B1B07D110F8013B11F8014B4D
:1007B0001B1B01D1921EF1D1184610BD10B5431C70
:1007C00002E010F8011B71B18107FAD14FF001323C
:1007D00002C88C1A8C4314EAC211F9D0C01A0A0656
:1007E00003D0C01E10BDC01A10BD0A0401D0801E67
:1007F00010BD0902FCD0401E10BD4FF000020429BC
:10080000C0F0128010F0030C00F01B80CCF1040C3F
:10081000BCF1020F18BF00F8012BA8BF20F8022B73
:10082000A1EB0C0100F00DB85FEAC17C24BF00F819
:10083000012B00F8012B48BF00F8012B70474FF047
:10084000000200B5134694469646203922BFA0E820
:100850000C50A0E80C50B1F12001BFF4F7AF09072C
:1008600028BFA0E80C5048BF0CC05DF804EB89001D
:1008700028BF40F8042B08BF704748BF20F8022B60
:1008800011F0804F18BF00F8012B70477047704778
:1008900070477047004870477C02002070477047DF
:1008A0007047704738B504460A4600206946AFF3E2
:1008B0000080002808BF38BD02460099204600F09D
:1008C000F1FA012038BD012000F002BCF8B5AFF309
:1008D0000080054600200C46102000BF0646A819DF
:1008E000A0420DD9324669460020AFF300800700D0
:1008F00008BF00F0EDFB0098A04218BF0546C419E0
:10090000FFF7C8FF05600746F01D20F007004619F5
:10091000284600F00AF8B44208BFF8BDA21B3146D1
:100920003868BDE8F84000F0BDBA00210160C0E9B8
:1009300001107047102070472DE9F0470D46994689
:100940009246044600F124080168880604D5E0694F
:1009500021F01001216000E00120A84201DD471BC9
:1009600000E00027A1697A1902EB0900081AA061CA
:100970002078C00602D42046AFF30080002608E0AD
:10098000D4E901211AF806009047206A401C761C21
:1009900020624E45F4DB2078C0060AD52046AFF32E
:1009A000008006E0D4E9012130209047206A401CF5
:1009B0002062381EA7F10107F4DC07E0D4E9012129
:1009C00018F805009047206A401C2062281EA5F1F7
:1009D0000105F3DC2046AFF300802078000602D545
:1009E0000220BDE8F0870120FBE72DE9FF4F0C4610
:1009F0001E464FF0FF378BB0D2E90001DDF8608072
:100A00000A908A46C1F30A5505B93D4600210846B9
:100A10004FF00000BAF1000F00F4400005DA00EBDF
:100A200080004FF4400101EA50004FEA9059B9F1BB
:100A3000010F00DDB9460A9850EA4A000ED044F68C
:100A40001050A5F2FF3545432F14B8F1000F1ED00A
:100A50007542291E1EDDC9F100021CE0B8F1010F2C
:100A60004FF0000001D0302103E0F24305E02154B3
:100A7000401CB042FBDB30460022002121540B9980
:100A8000C1F80880C1E900200FB0BDE8F08FBD1BA0
:100A90006D1CDEE74A4600DA694206A800F0A2FAB9
:100AA00006AB93E8070003AB83E8070050460A99BA
:100AB00012F06FFC8DE80700A0F500501F38009081
:100AC0000398002D0ADD42F21F014A460844002324
:100AD00003A90390684612F0D9FE09E0A0F5005082
:100AE0004A461F38002303A90390684612F0E3FE2C
:100AF0008DE807000004000C03D04FF0FF304108E0
:100B000000E01046B8F1000F03D000220092154615
:100B10001EE0751E05D400F0DFF9303262556D1EFF
:100B2000F9D5B3460122084302D000227F1C04E01D
:100B30002078302801D100227F1E002A099784D016
:100B40001DE0112D07DA00F0C7F9303262556D1C37
:100B500050EA0102F5D1084302D00098C8B10EE076
:100B60000021681E05E0235C625C63542254401E31
:100B7000491C8142F7DBAB46A81B401E09900020B0
:100B800004F80B000B98099AC0F80880C0E9002B04
:100B90007AE711264FF0000857E72DE9F04F884615
:100BA0000446D21D22F0070191B0D1E90001CDE940
:100BB0000A0112F0B7FF02460B98C00F01D02D209A
:100BC00007E02068810701D52B2002E0202101EAFF
:100BD000C000032A099001D0072A05DB03464146DD
:100BE000204600F0BFF90BE12078800601D5E069CE
:100BF00000E00620B8F1650F814606D0B8F1660F17
:100C000018D0B8F1670F70D131E00020B9F1110FA1
:100C1000009001DB112301E009F101030AAA01A9F7
:100C20000CA8FFF7E2FEDDE90C70002609F10105D2
:100C3000834647E001204B4600904FF000470AAA48
:100C400001A90CA8FFF7D1FEDDE90DB00C995D46B6
:100C5000002610B909F101000D18B9EB050003D405
:100C6000C0F1FF3609F10105A5EB09002BE0B9F150
:100C7000010F01DA4FF001090020B9F1110F0090C6
:100C8000484601DD112300E003460AAA01A90CA889
:100C9000FFF7ABFEDDE90C704D4600268346207859
:100CA00000070AD4AB4500DA5D4601A8012D04DD3A
:100CB000411911F8011C302907D04F4502DA17F10C
:100CC000040F04DA012082460FE06D1EEEE7002FCC
:100CD00002DCED1B3E4403E0781CA84200DD7D1CD5
:100CE000B81B00F1010A4FF000472078000703D439
:100CF000AA4501DB4FF0FF3A0021B7F1004F0DF19B
:100D000043088DF8431024D002202B23002F01DA52
:100D10007F422D230A21021EA0F1010000DC5FB1F9
:100D200097FBF1FC97FBF1F201FB1C7C17460CF1E1
:100D3000300C08F801CDEEE7A8F10100037021881E
:100D4000090501D5452100E06521A0F1010800F861
:100D5000011C09980FA9A1EB0807FF1D00B1012094
:100D6000411901EBEA70A1693844081A401EA061DC
:100D70002078C00602D42046AFF30080099828B13D
:100D8000D4E901219047206A401C20622078C006E7
:100D900022D52046AFF300801EE0002E04DBB345D1
:100DA00002DD01A8805D00E03020D4E901219047F8
:100DB000206A401C2062761CAAF101005FEA000A4A
:100DC0000AD100F06BF8C0680168405CD4E90121E9
:100DD0009047206A401C2062281EA5F10105DCDC3A
:100DE00007E0D4E9012118F8010B9047206A401C64
:100DF0002062381EA7F10107F3DC2046AFF3008024
:100E0000032011B041E6000001694A1C0261087824
:100E1000704700B58FB0CDE901310021059105493A
:100E20007944CDE9031011466846FFF7CBFB0FB0BC
:100E300000BD0000E5FFFFFF0A6802F8010B0A6031
:100E4000704710B5436913B1AFF3008001E0FFF7BD
:100E500027FB012010BD127800F124010A70002246
:100E60004A700122EDE711684FF0FF32E9E7000018
:100E7000074B70B50D467B44FFF7CBFF0446284671
:100E800000F022F910B14FF0FF3070BD204670BD68
:100E90006FAD0000004870477402002000487047A2
:100EA00094020020034640688C46002818BF884200
:100EB0003CBF03464068F8D318681844884207D0FE
:100EC0000CF1030020F00700001D411A521A0146E0
:100ED000081D0A60FFF724BA30B5B0F10A0271F1BB
:100EE00000034FEA900E4EEA817EB0EB0E0061EBFC
:100EF00091014FEA101E4EEA017E10EB0E0041EB0D
:100F000011114FEA102E4EEA016E10EB0E0041EB6C
:100F100011214FEA104E4EEA014E10EB0E0041EB4C
:100F20001141401841F100014FEAD00040EA417000
:100F30004FEAD1014FEA810444EA907410EB800536
:100F400044EB01046D1944EB0404521BA3414FF020
:100F5000000348BF0A3200D530BD401C41F10001FA
:100F600030BD00002DE9F0411F460446032601680C
:100F7000072A01F4006004DB08B116A505E016A5F8
:100F800003E008B115A500E015A521F010002060D0
:100F9000A069C01EA0610FB1401EA0612046AFF342
:100FA00000804FB1D4E9012138469047206A401CA7
:100FB0002062C01C206206E0206AFAE7D4E9012121
:100FC00015F8010B9047761EF8D22046AFF300804B
:100FD000BDE8F0814E414E006E616E00494E460004
:100FE000696E66002DE9F047814616468AB035489D
:100FF00078440DC88DE80D0032487844801C03AC5D
:101000000DC884E80D0041F69B300844372190FB61
:10101000F1F290FBF1F5A5F1800501FB12041B3CF8
:1010200002D56442012000E00020DFF898A080464D
:101030000027FA44AAF1BE0A0EE0E0070AD03246C1
:10104000684607EB470101230AEB810112F033FCEC
:101050008DE8070064107F1C002CEED1194F7F44EF
:10106000AE3F19E0E80715D007EB04100DF1180AA0
:1010700090E80E008AE80E00C068F04201D198198D
:1010800008903246012306A903A812F014FC03AB12
:1010900083E807006D10641C002DE3D14FF00103BD
:1010A00032466946B8F1000F03A802D012F0EEFBF9
:1010B00001E012F000FCC9E90001C9F808200AB0FB
:1010C000BDE8F087B4320100007B00F0800070477B
:1010D00010B500F037F8BDE8104000F02EB87546A6
:1010E000FFF7D8FEAE4605006946534620F00700DC
:1010F000854618B020B5FFF7D1F8BDE820404FF085
:1011000000064FF000074FF000084FF0000BAC4610
:10111000ACE8C009ACE8C009ACE8C009ACE8C0095B
:1011200021F007018D46704710B50446AFF30080EB
:101130002046BDE81040FFF79CB8002801D008F019
:1011400027BA704710B5012805D0002103A000F090
:1011500061F8012010BD09A1F8E70000534947528A
:10116000544D454D3A204F7574206F662068656177
:1011700070206D656D6F7279000000003A2048653F
:101180006170206D656D6F727920636F727275701A
:10119000746564000000000030B44FF0013C50F86A
:1011A000042B51F8043BCCFA52F4D51A20D1FCB9E7
:1011B00050F8042B51F8043BCCFA52F4D51A17D14D
:1011C000B4B950F8042B51F8043BCCFA52F4D51AB8
:1011D0000ED16CB950F8042B51F8043BCCFA52F400
:1011E000D51A05D1002CDAD030BC4FF00000704782
:1011F00029BAB1FA81F111F01801D1F1200084402F
:10120000F2D1CA40CB4012F0FF0213F0FF0330BC12
:10121000D01A704770B505460C460A2000E06D1CD8
:1012200008F0B8F935B128780028F8D102E0641C3C
:1012300008F0B0F914B120780028F8D1BDE870406A
:101240000A2008F0A7B900007047000080B50146E9
:1012500041F64470C2F2000002F038FC80BD00008C
:1012600080B541F64470C2F2000002F041FC04383F
:1012700018BF012080BD000010B500F01BF8012848
:101280001CBF012010BD41F64470C2F2000002F004
:1012900095FD044608B1204610BD41F64470C2F2E7
:1012A00000004FF4006102F0B7FA002818BF0124D3
:1012B000204610BD81B001208DF803009DF8030089
:1012C00001B0704780B513460A46014641F64470A6
:1012D000C2F2000002F05AFF002818BF012080BDB2
:1012E00040F6C840C2F200000121016070470000D2
:1012F00080B513460A46014641F64470C2F200002A
:1013000002F0EAFF002818BF012080BD41F2B05072
:10131000C2F200000121016070470000FEE70000FA
:1013200041F64810C2F2000000F0D4B841F6A8100F
:10133000C2F2000000F0CEB870470000EFF310805A
:1013400072B600BFFEE7000080B541F20863C2F24A
:1013500000035A7A002A1CBF012080BD93F809C0FF
:101360008646002003F80C005A7A03EB8202C2F88A
:1013700004E05A7A1A44107293F809C00CF1010281
:101380005A720CF130020A7042F63A72A1F801204A
:10139000C87080BDB0B5B3F5804F03461AD153F87D
:1013A00022C00020CCF6F0700CEA000E91E831006B
:1013B000D1F818C040EA0E0040EA0410C96840EABB
:1013C000052040EA0C0040EA0141002043F82210C9
:1013D000B0BD00BF6FF07041002043F82210B0BDD7
:1013E0002DE9F04F83B00B68024650F8230001F15D
:1013F000240B20F0010042F82300D1E90230D1E9AA
:1014000000CE01908869D1E9049A0290C86BD1E9B5
:10141000077600909BE83008D1F8308052F82C0015
:101420008021CFF6F07108404EEA0301082B08BF77
:1014300041F04001019B194341EA090141EA0A01D7
:10144000394331432143294341EA0B01029B41EADD
:1014500008011943009B19430143002042F82C1056
:1014600003B0BDE8F08F0000F0B500EB82025068D9
:10147000D1E902E400F0404CD1E90030D1E9045652
:1014800043EA0C03002743EA0010CFF6F07740EA66
:101490000E20896907EB055540EA04402843FE36D3
:1014A000084340EA066100205160F0BD90F8351015
:1014B000022909D1052180F835100068016821F062
:1014C00001010160002070478021416501207047C3
:1014D000406D7047F0B581B004460020009040F2A6
:1014E0008400C2F200000268D4E9166048F2B51325
:1014F00037680821C1F64E3381403942A2FB0325EB
:101500000CD0226813685B0708D5136823F0040326
:101510001360B160616D41F001016165012181409D
:10152000394208D022685269120604D5B160616D53
:1015300041F00201616504218140394208D02268EE
:101540001268920704D5B160616D41F004016165D4
:1015500010218140394217D020680268120713D544
:10156000B16002680168520308D4C90508D4016853
:1015700021F008010160216C21B905E008033FD486
:10158000216C09B120468847E16D202000FA01F264
:101590003A4241D020680368DB063DD5B26094F83A
:1015A00035300268052B1BD122F016020260426919
:1015B00022F080024261226C0AB9A26C1AB1026860
:1015C00022F0080202603F208840B060012084F8C9
:1015D0003500216D0020002984F8340052D157E0F5
:1015E0000168520310D4C90512D4016821F010011A
:1015F0000160012084F83500002084F8340007E001
:10160000A16C0029BED1BFE7080301D4616C00E0E2
:10161000E16B09B120468847606DC8B3606DC007B3
:101620002ED0052084F835002068A90A026822F02F
:1016300001020260009A01328A4200921AD80268BE
:10164000D20717D0009A01328A42009212D802685B
:10165000D2070FD0009A01328A4200920AD802685B
:10166000D20707D0009A01328A42009202D802685B
:10167000D207DFD1012084F83500002084F834003F
:10168000E16C29B1204601B0BDE8F040084700BF39
:1016900001B0F0BD2DE9F041044600F0FBF9002C4B
:1016A0004ED00546022084F835000020216884F8D9
:1016B0003400086820F0010008600868C00708D0FE
:1016C00000F0E8F9401B05286CD821680868C007BD
:1016D000F6D1086848F23F02CFF21002D4E9013592
:1016E000024004F10C0E9EE8C1511A432A431043F4
:1016F0003043384340EA0800626A40EA0C00042A9A
:1017000040EA0E0320D1D4E90A5E206B4EEA0302C0
:10171000104308604869BEF1000F20F0030040EA62
:10172000050040F0040C15D0B8F5005F42D0B8F1C8
:10173000000F51D1022D52D0012D47D055B94EE0A6
:101740000120BDE8F08100BF0B60486920F0070070
:1017500040EA020C6FF00F004AF6AB2250FA81F01B
:10176000CAF6AA22A0FB02231A0947F2D823C0F620
:1017700001039A5C40F2FF335F284FF03F00C1F84D
:1017800014C021EA030100FA02F088BF0431C4E961
:1017900016128860002301220020636584F835203A
:1017A000BDE8F081032220230320636584F83520FF
:1017B000BDE8F081032DCDD8012240230120DFE8D0
:1017C00005F0030E030500BFE7E700BFAEF1C070F0
:1017D000B0FA80F0400904E0032D04D3BAD1CEF36F
:1017E00000600028B6D0012240230120636584F800
:1017F0003520BDE8F081000070B590F834C0BCF130
:10180000010F46D04FF0010C80F834C0D0F858E0FA
:1018100090F835C0BCF1010F38D14FF0020C80F8C0
:1018200035C04FF0000CC0F854C0D0F800C0846838
:10183000056CC06DDCF80060402C26F48026CCF8E6
:101840000060CCF804300B4604BF13460A463F2123
:1018500001FA00F0CCF80830CCF80C20CEF80800E3
:10186000DCF8000040F01600CCF800002DB1DCF8E8
:10187000000040F00800CCF80000DCF8000040F068
:101880000100CCF80000002070BD00BF002180F8EE
:101890003410022070BD0000B0B5044600F0FAF824
:1018A000054640F21000C2F200000078611C18BF2B
:1018B000044400BF00F0EEF8401BA042FAD3B0BDD4
:1018C0002DE9F04F82B000F13E4241F6004502F1B1
:1018D000FF77C4F2020508224FEAB726A84208BFE4
:1018E0000722072E38BF4FEAB7224FF0010A002423
:1018F00000274FF00008009208E000BF023708F10F
:101900000108202F04F1040400F0B4800E680AFAE4
:1019100008F916EA090FF1D0D1F804A00AF0030B78
:10192000ABF10106012E17D80322866802FA07FEE2
:10193000CA6826EA0E06BA40324382604268CAF399
:10194000001522EA090205FA08F54FEA480C6FEA89
:101950000E062A4342600BE00322BA40D643BBF195
:10196000030FBC4604D1BC464FF0030B22E000BF7E
:10197000C2688D68324005FA0CF52A43BBF1020FAC
:10198000C26017D16FF0030202EA5802024404F069
:101990001C030F25D2F820E005FA03FA0D692EEAA0
:1019A0000A0E05FA03F343EA0E031362D1F804A00A
:1019B0000AF0030B02680BFA0CF332401A431AF4D4
:1019C000403F4FF0010A026098D0002243F64403E2
:1019D0000192C4F202031A6843F6004E42F48042B8
:1019E0001A601A68C4F2010E02F480420192019A50
:1019F00028F003024FF6084C7244CFF6FF7C52F8F1
:101A00000C3004F00C060F25B540AB43009D05FAE1
:101A100006F6334342F80C30DEF808204B6842EA01
:101A2000090643F60C4CDD0258BF22EA0906CEF83F
:101A30000860C4F2010CDCF800209D0242EA0906AD
:101A400058BF22EA0906CCF80060DEF804209D03A6
:101A500042EA090658BF22EA0906CEF80460DEF819
:101A60000020DB0342EA090658BF22EA0906CEF845
:101A7000006043E702B0BDE8F08F00000069084055
:101A800018BF012070470000002A08BF09048161C7
:101A90007047000042F2F800C2F200000068704790
:101AA00040F2100042F2F801C2F20000C2F200015E
:101AB00000780A68104408607047000080B543F65B
:101AC0000040C4F20200016841F400710160016845
:101AD00041F480610160016841F48071016003207C
:101AE00000F086F8002000F005F800F027F800204C
:101AF00080BD000070B540F21006C2F2000640F250
:101B000084013278C2F200014FF47A730968B3FBA2
:101B1000F2F20446B1FBF2F1084602F00BFD0F2C85
:101B20004FF0010508D838B94FF0FF3021460022A8
:101B3000002500F031F87460284670BD82B00020A6
:101B400043F640010190C4F202014A6842F4804227
:101B50004A604A6802F480420192019A0090086843
:101B600040F080500860086800F0805000900098B5
:101B7000052002B000F03CB8002848BF704700F0D4
:101B80001F01012202FA01F14EF200124009CEF2C9
:101B9000000242F82010704710B54EF60C5CCEF2F1
:101BA000000CDCF80030C3F3022E8EF00704042C86
:101BB00028BF0424BEF103034FF0FF3E0EFA04F4E5
:101BC00038BF0023A14399400EFA03F39A4311430F
:101BD00000F00F02043A624409010C3200F1604344
:101BE000B0F1FF3FC8BF03F56442117010BD0000A3
:101BF0004EF60C51CEF200010A684FF6FF031A4070
:101C000060F30A2242F0806040F0FD700860704787
:101C10007047000002680020516270472DE9F043D0
:101C2000D0F80090D9F82400A1B1D9F82830B1F14A
:101C3000010800EB13435DD0A8F10100C0B20328F6
:101C400008F0030C0ED24FF0010E0027BCF1000F7C
:101C500033D14FE040EA0240C9F828000020BDE837
:101C6000F08300BF08F0FC0E09F1F404002009F530
:101C7000827500BF54F8107F064603EB174046F00C
:101C80000103DBB246F0020755F82330FFB255F8E6
:101C9000277000EB134000EB174346F00300C0B27F
:101CA00055F82010301DC7B2774503EB1143E1D141
:101CB00006F1050EBCF1000F1CD009EB8700D0F82F
:101CC0000401BCF1010F03EB104313D05FFA8EF057
:101CD00009EB8000D0F80401BCF1020F03EB1043C4
:101CE00008D00EF10100C0B209EB8000D0F8040169
:101CF00003EB104343EA024009EB8801C1F80401F9
:101D00000020BDE8F083000080B5D0F8080505F09C
:101D1000FFFC80BD80B501EBC102D0F8083500EBB7
:101D20008200C26C184605F05DFC80BD80B501EBF9
:101D3000C102D0F8083500EB8200D0F88C2218469A
:101D400005F0AAFC80BD000080B5D0F8080505F0BC
:101D5000E1FC80BD10B50446080601F00F0000EB61
:101D6000C00104EB810205D402F51F71002382F843
:101D70007D3204E0012302F13C0182F83D3094F809
:101D8000BC240870012A04BF022010BD2068012273
:101D900084F8BC2406F06EFC002084F8BC0410BD5E
:101DA000B0B54268044601F00F00904284BF0120A4
:101DB000B0BD09060AD400EBC00104EB810202F5B4
:101DC0001F71002382F87D3209E000BF00EBC001E3
:101DD00004EB8102012302F13C0182F83D3094F8CA
:101DE000BC240025012A8D70087004BF0220B0BDFC
:101DF0002068012284F8BC2406F094FF284684F869
:101E0000BC54B0BD10B5044690F8BC04012804BF12
:101E1000022010BD206801220B0684F8BC2405D4E2
:101E200007F058F9002084F8BC0410BD01F00F0140
:101E300007F0ACF9002084F8BC0410BD01F00F01DC
:101E400001EBC10100EB8100D0F89C02704700005B
:101E5000B0B50546080601F00F0000EBC00105EB28
:101E6000810C05D40CF51F7100248CF87D4204E030
:101E700001240CF13C018CF83D404C780870002C9A
:101E8000CA600B7118BF0881022B04BF0020487183
:101E900095F8BC04012804BF0220B0BD28680122C7
:101EA00085F8BC2406F0A0FA002085F8BC04B0BD7B
:101EB00080B501F00F0C0CEBCC0100EB810ECEF8DD
:101EC00094320023CEF89C328EF87D320369CEF82E
:101ED0008C22012B8EF87CC208BFCEF890220068BD
:101EE0000EF51F71DAB2BCF1000F03D006F062FFED
:101EF000002080BD06F06AFE002080BDB0B504461B
:101F0000406801F00F05854284BF0120B0BD08067E
:101F10000AD401EBC10004EB800000F51F71002220
:101F200080F87D2209E000BF05EBC50004EB8000CE
:101F3000012200F13C0180F83D2094F8BC0401220C
:101F400001288A700D7004BF0220B0BD206884F89B
:101F5000BC2406F00FFF1DB1002084F8BC04B0BD06
:101F60002068217C04F2C44206F0AEFE002084F812
:101F7000BC04B0BD10B501F00F0C0CEBCC0100EBB4
:101F8000810E714601F83CCF8B6100230B6203691F
:101F900001244C70012B0A6108BFCEF85020006864
:101FA000DAB2BCF1000F03D006F004FF002010BD30
:101FB00006F00CFE002010BD2DE9F04F8BB0056837
:101FC0008246284607F04CF910B10BB0BDE8F08FFF
:101FD000DAF8000007F072F90028F6D0D5F8080802
:101FE000C0F30D21DAF80000CAF8FC1407F066F916
:101FF0000146DAF80000890703D5416901F00201C2
:10200000416105F50061039107F058F90146DAF8DE
:102010000000C90605953BD5816921F01001816159
:102020002C6AC4F34340062804F00F0518D0022898
:1020300027D147F6F07014EA000622D005EBC50060
:102040000AEB8007D7F88C1234090598224607F06E
:1020500039F9D7F88C0200EB1610C7F88C0207E0AC
:1020600005980AF2C441082207F02CF9C4F30A14B7
:1020700005EBC5000AEB8000D0F89C122144C0F8A3
:102080009C12DAF80000816941F010018161059D20
:1020900007F014F90003CDF828A040F1ED80DAF83C
:1020A000000007F0E9F8002800F0E68006460AF292
:1020B000C4400AF527784FF430644FF0000B0990C4
:1020C0001BE000BF2819022181605FEA8A6042BFDD
:1020D0002819202181605FEA8A40DDF828A042BFEC
:1020E00028194FF4005181600BF1010B760804F1BF
:1020F000200408F1240800F0BF80F007F4D0DAF8DB
:1021000000005FFA8BF9494607F0D0F88246C00715
:1021100062D02819012181600A9F38682118036C58
:102120008A683F69012F29D1170735D4970600F136
:102130009B8012F0280F4FD143F20B07C4F654775F
:10214000BB4202D312F400422FD158F8042C096983
:10215000BBF1000F6FF3DF41A2EB0101C8F80010E3
:1021600035D10A9BD3F89422002A00F08380D3F85B
:102170008C020844C3F88C0229E000BF43F20B072D
:10218000C4F65477FF37BB4216D110040DD4900625
:1021900044BF202088601AE043F20B00C4F654705C
:1021A000834219D312F4004016D04FF400408860E7
:1021B0005FEA0A7013D437E0BBF1000F07D10A9928
:1021C000D1F8941219B90021099A06F07DFD0A98F8
:1021D0004946FFF7ABFD00BF5FEA0A7024D5281916
:1021E000082181600A9843F20B020068C4F6547219
:1021F000056C20448168571EBD4205D911F4004189
:102200001CBF4FF4004181600A9800F091FCBD4270
:10221000059D09D90A980069012805D10A98099AEB
:102220000068012106F050FD5FEACA6042BF28192C
:10223000102181605FEA8A707FF547AF6869000608
:1022400004D50399486840F48060486018F81D0C74
:1022500001287FF437AF002008F81D0C0A98494682
:1022600000F048FB2EE700BF202088605FEA0A707C
:10227000B5D4D9E70121A7E7DAF8000007F01EF886
:10228000039E400340F1DE80DAF8000006F0ECFF28
:10229000002800F0D78005F5106104910AF2C441CE
:1022A0004FF0000B029104E040080BF1010B00F02D
:1022B000C980C107F8D00690DAF800005FFA8BF108
:1022C000099106F0E1FF049F0446C00728D00BF0F7
:1022D0000F00716B012202FA00F021EA0000706326
:1022E00007EB4B108260DAF81000012814D10BEBD9
:1022F000CB000AEB8000D0E91212BBF1000F1144B1
:10230000C16409D1DAF8540030B9DAF80000029A51
:10231000012106F0D9FC00BF09995046FFF7FAFCED
:10232000200742BF07EB4B1008218160E00642BF47
:1023300007EB4B1010218160600642BF07EB4B108A
:1023400040218160A00715D52846594606F01EFF9A
:102350000BEBCB000AEB800010F83F1F012905D1E1
:10236000002101700999504600F0BEFA07EB4B10AE
:10237000022181602006069896D50BEBCB010AEB73
:102380008104A14659F8542FC84658F8087FBA422C
:102390008AD3DAF8005054F8483FD11B994288BFDD
:1023A0001946089505EB4B1CDCF818590331ADB202
:1023B000B5EB910F28BFBA4204D8059DBA423FF64B
:1023C00073AF33E004F1040ADAF800100CF510657D
:1023D000079400BF0A98D41B9C42067C88BF1C4609
:1023E000DDE90802A3B2009607F096F8DAF80000DB
:1023F000E31C0119D8F80000CAF800100719C8F842
:102400000070AA6996B2D9F80020B6EB930F28BFE6
:10241000BA4203D907980368DCE700BFDDF828A0BB
:10242000039EDDE90550BA423FF63EAF089F0BF030
:102430000F02D7F83418012303FA02F29143C7F8C8
:10244000341831E7DAF8000006F038FF002823D40A
:10245000DAF8000006F032FF00053AD4DAF800009E
:1024600006F02CFFC00444D5D5F80408102120F054
:102470000100C5F80408DAF8000006F087FEDAF873
:102480000400002800F0F580411E032900F0030C31
:1024900032D200219CE000BF706820F00100706023
:1024A0009AF8F404012807D100208AF8F404504671
:1024B0000021FFF7ADFB02E0504600F019FBDAF80F
:1024C0000000416901F00041416106F0F7FE00059E
:1024D000C4D5B068C00702D0504600F053FBDAF80C
:1024E0000000416901F40061416106F0E7FEC004AB
:1024F000BAD4DAF80000EAE020F0030E05F53663FE
:102500004FF6A0564FF6C0554FF6E0544FF6006018
:1025100000214FF67F37CFF6FF76CFF6FF75CFF667
:10252000FF74CFF6FF7000BFA3F5187297609A5939
:10253000043122F400129A5143F8587C53F8602C6D
:102540008E4522F4001243F8602C53F8602C42F0C0
:10255000006243F8602CA3F5107297605A5922F478
:1025600000125A5143F8387C53F8402C22F40012E0
:1025700043F8402C53F8402C42F0006243F8402CC2
:10258000A3F5087297601A5922F400121A5143F801
:10259000187C53F8202C22F4001243F8202C53F816
:1025A000202C42F0006243F8202CA3F500729760C3
:1025B0001A5822F400121A509F601A6822F400126E
:1025C0001A601A6842F000621A6003F18003ABD10E
:1025D000059D039EBCF1000F4BD005F5106000EB8C
:1025E00041124FF67F334F019360C65905F53062B3
:1025F00026F40016C65102EB4116B360D659BCF161
:10260000010F26F40016D651D65946F00066D65171
:10261000039E2ED04F1C00EB47157E01AB60855901
:1026200002EB471725F400158551BB609359BCF1A7
:10263000020F23F400139351935943F00063935115
:10264000039E16D0023100EB41174FF67F364B0147
:10265000BE60C75827F40017C75002EB41108660D0
:10266000039ED05820F40010D050D05840F00060A5
:10267000D050F06940F00110F061DAF8300048B154
:10268000D6F8840040F00B00C6F8840006F1440040
:1026900007E000BF706942F22B010843706106F148
:1026A000100001680AF2C44241F00B010160306879
:1026B00020F4FE603060DAF800009AF8101006F09E
:1026C00003FBDAF80000416901F48051416106F032
:1026D000F5FD0146DAF8000089041AD505F0CAFEB6
:1026E000DAF8000006F0AEFDDAF80040CAF80C0097
:1026F00000F0B8FB9AF80C200146204606F07CFE5C
:10270000504600F0E1F9DAF80000416901F40051A7
:10271000416106F0D3FD000706D4DAF8000006F0A8
:10272000CDFD00060DD435E0504600F0E7F9DAF8AB
:102730000000416901F00801416106F0BFFD00069B
:1027400028D50599886920F080008861DAF80400AE
:1027500002281FD30AF2A324012504E00135854293
:1027600004F1240416D221780129F7D105F00F00D5
:1027700000EBC0000AEB80022806DAF8000002F144
:102780003C0158BF02F51F7106F014FCDAF8040092
:10279000E4E700BFDAF8000006F090FDC0024FD475
:1027A000DAF8000006F08AFD059D800240F17E8087
:1027B000DAF8040002282AD3013805F532610AF557
:1027C0002972012306E000BF013801F1200102F166
:1027D00024021CD00F681678012EF5D1B7F1FF3F07
:1027E000F2DCDAF8FC6407F4803706F00106B74241
:1027F000EAD102F8013CAF6947F08007AF616F6929
:102800003F06E1D40399486840F400704860DAF864
:102810000000416901F40011416106F04FFD4000E4
:102820004AD55046FFF770FADAF80000416901F026
:102830008041416106F042FD40077FF5C6AB42E0B2
:10284000DAF80400022825D305990AF1640501F598
:1028500012640126012705E001372034874205F183
:10286000240517D221682A78012AF5D1B1F1FF3F5A
:10287000F2DC07F00F0000EBC0000AEB8001DAF891
:1028800000003C3105F8016C06F094FBDAF8040016
:10289000E2E700BFDAF80000416901F4801141610C
:1028A00006F00CFD059D80023FF582AFDAF80000CE
:1028B00006F004FD4000B4D4DAF8000006F0FEFC97
:1028C00040077FF582ABDAF800004468610704D561
:1028D0005046FFF739FADAF80000416821434160B9
:1028E0000BB0BDE8F08F000080B5D0F8080504F00B
:1028F00081FF80BD80B5D0F8080504F08FFF80BD52
:102900002DE9F04F8BB0002800F086800446056862
:1029100090F8BD0428B9002084F8BC04204600F0DB
:102920008FF8032084F8BD04E86BC0055CBF00206D
:102930002061206806F042F9206804F11C0A0A9020
:10294000D4E90C5004F1040E9AE8C0079EE80E5832
:10295000CDE9085003A880E8C0030A988DE8005824
:10296000CDF81CA005F096FD002852D1206800216A
:10297000002506F0FDFC616861B301200023002200
:1029800003EBC30304EB830787F83C20D3B2013287
:10299000A7F84430D3B2994287F83D0087F84050F9
:1029A000C7E912557D65EBD800200023002200BF47
:1029B00003EBC30304EB830787F87C220132D3B215
:1029C000994287F87D0287F88002C7E9A200C7F81C
:1029D0009402EDD8A06822680A90D4E90C5004F162
:1029E000140E04F1240AD4E903379EE840589AE80B
:1029F0000007CDE9085002A880E8005810460A9A5E
:102A0000CDE90076CDE90589CDF81CA005F094FE4E
:102A100040B1022084F8BD04012528460BB0BDE872
:102A2000F08F00BF0025012084F8385084F8BD04E1
:102A3000206805F071FE28460BB0BDE8F08F00005D
:102A4000B0B586B000680024B0F1A04F0594CDE980
:102A500003440294019401D006B0B0BD43F63005A2
:102A60000094C4F20205286801A940F00100286022
:102A7000286800F00100009000984FF4C0500190C9
:102A80000220CDE90204032004900A2005900020D2
:102A9000C4F20200FEF714FF6868032140F08000D2
:102AA000686000946869002240F480406861686949
:102AB00000F48040009000984320FFF76DF8432019
:102AC000FFF75AF806B0B0BD10B50446C06828B18B
:102AD000022818BFFEF732FC012100E00021D4F8E3
:102AE000080504F01FFFD4F8080504F0D1FE10BD5E
:102AF00080B5D0F8080504F0FDFE80BD80B5D0F8A3
:102B0000080504F001FF80BD10B5044690F8BC0430
:102B1000012804BF022010BD012084F8BC0484F801
:102B20003810206806F056FC002084F8BC0410BD64
:102B300080B5D0F8082500F2C441104604F008FF23
:102B400080BD000010B5044690F8BC04012804BF05
:102B5000022010BDA16A20680122012984F8BC244A
:102B600006D1A169012903D0816B41F480318163D1
:102B700006F0A8FA206805F0BFFD002084F8BC0428
:102B800010BD000010B50446D0F8080504F030FF71
:102B90002068D0F8001E41F00101C0F8001E206A34
:102BA000002808BF10BD4EF61050CEF2000001689C
:102BB00041F00601016010BDF0B581B00446006827
:102BC00010F0050F2DD06827C4F2472743F6700692
:102BD0000020C4F202063860FEF75CFF054600BF25
:102BE00056F8700C000105D5FEF754FF401B022873
:102BF000F6D93FE0D4E90110000740EA8110706186
:102C000001203860FEF746FF054600BF56F8700CFD
:102C1000000105D4FEF73EFF401B0228F6D929E04B
:102C2000206880074FF0000058D543F67006C4F2C4
:102C30000206009056F8300C47F2000740F0805032
:102C400046F8300C56F8300CC4F2000700F0805003
:102C500000900098386840F480703860FEF71AFFE2
:102C6000054600BF3868C00508D4FEF713FF401BB7
:102C70000228F7D9032001B0F0BD00BF306810F47E
:102C8000407013D0E16801F4407188420ED0306882
:102C900040F64061C4F24721012220F440700A60EE
:102CA00000220A6030603068C00719D1E06856F829
:102CB000681C4FF6FF4300F4407221F4F811C0F68F
:102CC000FF730340B2F5407F08BF194346F8681C04
:102CD00031686FF31F3008433060002001B0F0BD51
:102CE000FEF7D8FE054641F2883700BF30688007FE
:102CF000DCD4FEF7CFFE401BB8424FF00300F5D9FD
:102D0000ECE700002DE9F041002800F08B8043F64D
:102D10000808C4F202080446D8F8F8030D4600F08B
:102D20000700884207D288F8F853D8F8F80300F073
:102D30000700A84276D12068810717D5410705D53D
:102D4000D8F8001041F4E051C8F80010010705D58B
:102D5000D8F8001041F46041C8F80010D8F800100D
:102D6000A26821F0F0011143C8F80010C0073FD15C
:102D7000D8F8F80300F00700A84207D988F8F853FC
:102D8000D8F8F80300F00700A8424BD120684107AB
:102D900007D5D8F80010E26821F4E0511143C8F8D3
:102DA0000010000708D5D8F80000216920F4604021
:102DB00040EAC100C8F8000000F082F8D8F800101E
:102DC00044F2E422C1F30311C0F60102515C40F267
:102DD000840220FA01F140F21400C2F200000068FF
:102DE000C2F200021160FEF785FE0020BDE8F0810E
:102DF0006068811E022907D258F8081C89015CBF4F
:102E00000120BDE8F08111E0012807D158F8081C25
:102E100089035CBF0120BDE8F08107E058F8081C79
:102E2000890703D40120BDE8F08100BFD8F8001065
:102E300021F003010843C8F80000FEF72BFE064608
:102E400041F28837D8F80000616800F00C00B0EB60
:102E5000810F8DD0FEF71EFE801BB842F2D90320F1
:102E6000BDE8F08140F28400C2F2000000687047C3
:102E700040F2840043F60801C2F20000C4F20201ED
:102E80000068096844F2F422C1F38221C0F601020D
:102E9000515CC8407047000040F2840043F60801CE
:102EA000C2F20000C4F202010068096844F2F42290
:102EB000C1F34231C0F60102515CC84070470000C6
:102EC00010B543F60404C4F20204606800F00C007C
:102ED00008280BD0042819BF42F20040C0F2F400C9
:102EE00047F64000C0F27D1010BD00BF2068216889
:102EF0002368490247F64001C0F27D1100F03F020D
:102F0000C3F388105CBF42F20041C0F2F401A1FBA0
:102F100000010023FDF72BFA21680222C1F30141D1
:102F200002EB4101B0FBF1F010BD00002DE9F041D2
:102F300082B000286AD00446007843F60006C00735
:102F4000C4F202060BD0B06800F00C00042840F078
:102F5000A1803068800302D56068002856D02078B0
:102F600080071AD5B06810F00C0F09D0B06800F0D7
:102F70000C00082840F0A8807068400200F1A4808E
:102F80003068800702D5E06801283FD130682169A8
:102F900020F0F80040EAC10030602078000739D402
:102FA000207840074ED4A5695DB3B06800F00C00EE
:102FB000082840F0BD80012D28D07068E16900F438
:102FC00080028A4222D1216A00F03F028A421DD14A
:102FD00047F6C071626A0140B1EB821F16D1A26A46
:102FE0000023CFF6FF7303EBC23200F440316FF3DE
:102FF0000F0291420AD1E16A00F07060B0EB016FFC
:1030000004D1002002B0BDE8F08100BF012002B071
:10301000BDE8F0816069002840F20000C4F247205A
:1030200076D00121C0F8801EFEF734FD054600BFB2
:10303000706F8007B4D4FEF72DFD401B0228F7D92E
:10304000DDE000BF306C10F080580AD10020019004
:10305000306C40F080503064306C00F08050019053
:10306000019847F20007C4F200073868C00541D450
:10307000386840F480703860FEF70CFD054600BFEC
:103080003868C00536D4FEF705FD401B0228F7D985
:10309000B5E000BFB06800F00C00082803D17068EC
:1030A00040023FF556AF6068B0F5803F07D0B0F5FD
:1030B000A02F40F08D80306840F480203060306870
:1030C00040F4803030608DE0E068002852D000206D
:1030D000C4F2472001210160FEF7DCFC054600BF79
:1030E000306880073FF552AFFEF7D4FC401B022842
:1030F000F6D984E0A068012805D005284ED1306FAC
:1031000040F004003067306F40F0010030674FE05E
:103110000021C0F8801EFEF7BDFC0546706F8007D9
:103120007FF53EAFFEF7B6FC401B0228F6D966E0FD
:103130000027C4F2472700203866FEF7ABFC022DBB
:1031400005460BD1306880015ED5FEF7A3FC401B1D
:1031500002284FF00300F5D954E700BF3068800122
:103160007FF54FAFFEF796FC401B02284FF003009F
:10317000F4D947E70020C4F2472000210160FEF7A0
:1031800089FC0546306880077FF507AFFEF782FCB3
:10319000401B02284FF00300F4D933E7316F0028B9
:1031A00021F001013167316F21F0040131674DD009
:1031B000FEF770FC054641F2883700BF306F80078C
:1031C00056D4FEF767FC401BB842F7D917E000BFA2
:1031D0003168002821F480313160316821F4802188
:1031E00031604FD0FEF756FC054600BF30688003C3
:1031F0003FF5B5AEFEF74EFC401B6428F6D9032020
:1032000002B0BDE8F08100BF04F11C052FCD0843DA
:103210000021CFF6FF7140EA821001EBC3316FF35A
:103220000F0140EA05600843706001203866FEF730
:1032300031FC0446306880013FF5E3AEFEF72AFC1E
:10324000001B02284FF00300F4D9DBE6FEF722FC56
:10325000054641F2883700BF306F800708D5FEF77A
:1032600019FC401BB8424FF00300F5D9CAE600BF75
:10327000B8F1000F7FF497AE306C20F080503064CE
:1032800091E600BFFEF706FC054600BF30688003EC
:103290007FF565AEFEF7FEFB401B64284FF0030090
:1032A000F4D9AFE670470000B0B5044600790128B4
:1032B00004BF0020B0BD012020716079012819D120
:1032C00002206071FEF7E6FB21684A68D20717D139
:1032D000054602E04868C00712D1FEF7DBFB401B41
:1032E00021680328F6D34868C007F3D10120607134
:1032F000022000E00420A060002000212171B0BD68
:1033000088680121E060617100212171B0BD000079
:1033100010B5044600684168890611D44168490621
:1033200010D44168C90708BF10BD016821F0080129
:1033300001608168E160607904280FD110BD00BF91
:10334000102000E00820A060042060712046FFF7F4
:10335000A9FF20686FF06001416010BD01200022CC
:10336000607120462271BDE8104000F041B80000B5
:10337000002804BF0120704710B50446407920B9E9
:1033800000202071204600F00DF8022060712068B6
:10339000016841F004010160012060710020A0601B
:1033A00010BD000080B582B0006840F60001C5F293
:1033B000060188421CBF02B080BD0020019043F688
:1033C0003400C4F202000168002241F040010160B3
:1033D0000068032100F04000019001985020FEF7A2
:1033E000DBFB502002B0BDE88040FEF7C5BB00000B
:1033F00070470000002804BF01207047B0B50446A4
:10340000407F20B900202077204600F06BF8022092
:1034100060772168CA20486253204862C868400625
:1034200014D4C86840F08000C860FEF733FB216800
:10343000CA6852060AD40546FEF72CFB401BB0F5BD
:103440007A7F47D82168C8684006F5D588684FF666
:10345000BF72CFF68F7210408860D4E9010CD4E9B6
:103460000335626928438D681043284388600B61E7
:10347000086940EA0C400861C86820F08000C86014
:103480008868800618D4C86820F0A000C860FEF7DD
:1034900001FB05462168C86880060DD4FEF7FAFADC
:1034A000401BB0F57A7FF5D90420607721680120B0
:1034B000FF224A62B0BD00BF086C20F4802008647F
:1034C000A0690A6C10430864012060770020FF2285
:1034D0004A62B0BD042060772168C8680120FF22DD
:1034E0004A62B0BD80B584B0006842F60002C4F202
:1034F0000002002190420291019101D004B080BDF0
:10350000022000904FF4807003906846FFF754FB50
:10351000002818BFFDF712FF40F63C60C4F24720B8
:103520000121016004B080BD2DE9F0410446007F17
:1035300001284FF0020008BFBDE8F0810123237786
:1035400060773AB14878CA788F78000240EA02483A
:1035500045E000BF4878C20642BF00F0EF000A30E5
:103560004870CA780A2A0DD30A3AD3B2CD277B43D2
:10357000DB0A03EB8307A2EB4702102707EB0313D9
:1035800001E000BF00231A43D2B20A284FEA0242E8
:103590000CD30A38C3B2CD277B43DB0A03EB830786
:1035A000A0EB4700102707EB031300E000230343C1
:1035B0008878DBB20A2842EA03280DD30A38C2B25F
:1035C000CD235A43D20A02EB8203A0EB430010231F
:1035D00003EB021201E000BF002242EA00070E786E
:1035E0002168CA20486253204862C868400615D442
:1035F000C86840F08000C860FEF74CFA2168CA68CD
:1036000052060BD4054600BFFEF744FA401BB0F546
:103610007A7F33D82168C8684006F5D5F8B240EA09
:103620000800720320F0C00010434860C86820F012
:103630008000C8608868800616D4C86820F0A000A2
:10364000C860FEF727FA05462168C86880060BD4D3
:10365000FEF720FA401BB0F57A7FF5D90420607799
:103660002168012003E000BF012060770020FF22D5
:103670004A6200212177BDE8F08100BF0420607715
:103680002168C8680120F2E7F0B581B00446007FE8
:1036900001284FF0020000F0B2800D460121217791
:1036A00060772168886800F040001AB1B0B9002046
:1036B000E87015E0002804BF0020E87028780A2888
:1036C00018D30A38C2B2CD235A43D20A02EB82037E
:1036D000A0EB4300102303EB02120CE0E878800516
:1036E0006B782A78AF781B0243EA02423A4442EAF6
:1036F000000732E0002210436A78C0B20A2A4FEA7B
:1037000000400DD30A3AD3B2CD277B43DB0A03EB4B
:103710008307A2EB4702102707EB031301E000BF6A
:1037200000231343AA78DBB20A2A40EA03200DD310
:103730000A3AD3B2CD277B43DB0A03EB8307A2EB24
:103740004702102707EB031301E000BF00231A43D1
:10375000D2B2EB78104340EA8357CA204862532024
:103760004862C868400615D4C86840F08000C86048
:10377000FEF790F92168CA6852060BD4064600BFCE
:10378000FEF788F9801BB0F57A7F3BD82168C868BE
:103790004006F5D547F67F70C0F27F0038400860DC
:1037A000886820F480208860D5E903028B68104384
:1037B00018438860C86820F08000C8608868800668
:1037C00016D4C86820F0A000C860FEF763F905466B
:1037D0002168C86880060BD4FEF75CF9401BB0F581
:1037E0007A7FF5D9042060772168012003E000BFCB
:1037F000012060770020FF224A620021217701B07A
:10380000F0BD00BF042060772168C8680120F2E79E
:1038100080B5FDF719FD80BD2DE9F04186B0044665
:10382000032084F83400606C8846032822D14FF0CE
:103830008050A16B40F2FF560843A063A06BC0F21A
:10384000400600283ED020680125866384F8345065
:103850004FF4007102F0AAFE28B1216801258E63A1
:10386000A16B0843A0630121284684F8341006B0F8
:10387000BDE8F081B8F1000F36D0B8F5805FD6D042
:10388000B8F5006F46D10021206805910491002110
:1038900002F008FE800141D404A9204603F010FA8A
:1038A0000028C6D19DF81600400730D5216D20684C
:1038B000090402F027FE0028BBD12068022102F093
:1038C00081FEB6E794E80F00D4E90557CDE90085FD
:1038D000029702F0F1FD206800254FF4007102F01C
:1038E00065FE0028B9D1BEE700212068059104914A
:1038F000002102F0D7FD800110D404A9204603F076
:10390000DFF9002895D19DF81600C0070AD14FF0C5
:1039100080608EE74FF000608BE700BF4FF40060DF
:1039200087E700BF216D2068090402F0EBFD002845
:103930007FF47FAF2068002102F044FE79E70000A9
:103940007047000080B5D0E9193ED0F844C09A0F06
:103950000A70C3F383624A70C3F301628A701A0C5F
:10396000CA701A0A0A714FEA1E524B71CA80CEF30E
:1039700003420A72CEF3C0324A72CEF380328A72A8
:10398000CEF34032CA72CEF300320A730022BCF189
:10399000010F4A7336D0BCF1000F40F0878040F62B
:1039A000FC72C36E02EA8E0242EA93720A61C26E30
:1039B000C2F3C2630B75C2F302634B75C2F3425389
:1039C0008B75C2F38243CB75C2F3C2330B76D1F849
:1039D00010C00B7E0CF1010C03F0070302330CFA4C
:1039E00003FCC0F854C00B7A03F00F0E012303FA56
:1039F0000EF383655B0A03FB0CF3C3654FF400739E
:103A000012E000BFB0F86E200EF03F0342EA03421E
:103A10000A610A694FF4806303EB82224FF400735A
:103A2000C0E91523C265C26E0366C2F380334B76CC
:103A3000C2F3C61302F07F028B76CA76006FC20F04
:103A40000A77C0F341724A77C0F382628A77C0F383
:103A50008352CA77C0F3405281F820200022C0F37D
:103A6000004381F8212081F82230C0F3C03381F86F
:103A70002330C0F3803381F82430C0F3403381F821
:103A80002530C0F3003381F82630C0F3812381F85C
:103A90002730C0F30123C0B2400881F8283081F8F4
:103AA0002900012081F82A00104680BD016840F2FB
:103AB000FF52C0F240028A63816B012241F08051C3
:103AC000816380F83420104680BD000080B500F18D
:103AD000440E9EE80C5081E80C10426DC1E903E2EF
:103AE000D0E91623C1E90523026E0020CA6180BD1A
:103AF00010B5016D04460068090402F0C1FE28B14A
:103B0000A16B0843A063002010BD00BF2068002106
:103B100002F0C8FCC0F3432010BD0000F0B581B036
:103B200004460068256B416B05F0080609042BD597
:103B300056B3E56A2DB3A66A02F0DAFC306020685D
:103B400002F0D6FC7060206802F0D2FCB060206801
:103B500002F0CEFCF060206802F0CAFC3061206800
:103B600002F0C6FC7061206802F0C2FCB0612068FF
:103B700002F0BEFCF06106F12000A5F12001C4E9CD
:103B80000A0101B0F0BD00BF416BC90540D4416BD3
:103B9000490465D5002E63D0666A002EF1D0276AED
:103BA0006D4639680091294602F0A6FC79682068C4
:103BB0000091294602F0A0FCB968206800912946CE
:103BC00002F09AFCF96820680091294602F094FC02
:103BD000396920680091294602F08EFC79692068D5
:103BE0000091294602F088FCB969206800912946B5
:103BF00002F082FCF869294600902068203702F024
:103C00007BFCA6F12000C4E9087001B0F0BD00BF44
:103C10004FF480718163C16B4CF23A329143C163BE
:103C2000C16A002E21F00101C16259D12906A8D52F
:103C3000A90608D502F096FE28B1A16B0843A0633F
:103C40002046FFF77DFEA8079BD12068C16A21F0BE
:103C50000801C1620121204684F834105EE000BFF3
:103C6000416B40F23A2211423FF48BAF416B89071E
:103C70005AD4416B09075ED4416B890662D4416B0B
:103C8000C90666D4416B890503D5A16B41F00801D3
:103C9000A16340F23A718163C16B40F23A329143C1
:103CA000C16302F05FFEA16B002E40EA0100A06339
:103CB00058D128067FF565AF15F0300F5ED0E06B68
:103CC00046F65541C0F600010165FDF7EFFB0028FF
:103CD0003FF457AFE06B01B0BDE8F04002F0BABF6F
:103CE00015F0220F08D002F03DFE28B1A16B084369
:103CF000A0632046FFF724FE206840F23A5181631A
:103D0000012084F834000020A9072063204605D054
:103D100001B0BDE8F04000F0D7BA00BF01B0BDE887
:103D2000F04000F0D5BA00BFA16B41F00201A163E1
:103D3000416B0907A0D5A16B41F00801A163416B5C
:103D400089069CD5A16B41F02001A163416BC90696
:103D500098D5A16B41F01001A163416B890594D402
:103D600097E700BF0120002184F83400204621633A
:103D700001B0BDE8F040FFF7E3BD00BFA80711D0D8
:103D8000206C46F6D931C0F600010165FDF78EFBC7
:103D900000283FF4F6AE206C01B0BDE8F04002F020
:103DA0001BBF00BF00210120A16384F8340020461E
:103DB000216301B0BDE8F040FFF72ABD10B5D8B1CE
:103DC000044690F8340020B900202077204600F007
:103DD0002BF9032084F83400204600F00FF8002867
:103DE0004FF0010018BF10BD0021A163216384F8CA
:103DF0003400002010BD00BF012010BDF0B58FB011
:103E0000044600687621002602910021002200234A
:103E10000096019602F050FB4FF0010510B12846C4
:103E20000FB0F0BD48F2A007C4F225273E6020681D
:103E300002F058FB02203D60FDF72EFD049620683D
:103E400002F0CCFB40B1012584F83450A16B08434B
:103E5000A06328460FB0F0BD206802F0EFFB68B108
:103E600020680021A16402F0B9FB0028EBD1A06C0E
:103E700004F14406012805D00CE000BF0120A06435
:103E800004F144062068002102F03CFB10B14FF021
:103E90008050D8E704984FF6FE77B84224D8002522
:103EA000CCF210152068002102F02CFB0028CAD1AA
:103EB0002068294602F032FB0028E8D12068002162
:103EC00002F0F0FA0499013104910499B94202D840
:103ED000B0F1FF3FE6DC04994FF6FE72914206D83E
:103EE000400007D5012006E00498B84202D94FF0FF
:103EF0008070A8E70020306020680125ADF80E50E2
:103F000002F0CCFA90B1606C032813D12068042130
:103F100002F0C8FA000DE06404A92046FFF712FD84
:103F2000002855D04FF080508EE700BF4FF08060E2
:103F30008AE700BF206802F0F9FB00287FF484AF15
:103F40002068002102F0AEFA21686067084604216B
:103F500002F0A8FA2168A0670846082102F0A2FA38
:103F60002168E06708460C2102F09CFA616CC4F8F5
:103F700080000329CAD020680DF10E0102F08CFCEC
:103F800000287FF461AF606C0328BFD0BDF80E102D
:103F900020682165090402F017FC00287FF454AF63
:103FA0002068002102F07EFA21686066084604213C
:103FB00002F078FA2168A0660846082102F072FA39
:103FC0002168E06608460C2102F06CFA20679DE744
:103FD000216D20680A04002302F09CFB00287FF476
:103FE00033AF94E88F00D4E90565CDE900760295FA
:103FF00002F062FA20684FF4007102F0D7FA78B14B
:10400000216840F2FF52C0F240028A63A16B012591
:104010000843A06384F8345028460FB0F0BD00BFB9
:10402000002528460FB0F0BD2DE9F04F85B00446BD
:10403000006842F60047C4F20107B84202D005B05A
:10404000BDE8F08F002643F630000096C4F202006F
:1040500041696D4641F400614161416946F2584948
:1040600001F4006100910099009601684FF0020888
:1040700041F00401016001684FF0030A01F00401FE
:1040800000910099009601684FF00C0B41F0080177
:1040900001600068294600F00800009000984FF485
:1040A000F850009007F55C40C4F20209CDE90186A2
:1040B000CDF80CA0CDF810B0FDF702FC0420CDE93E
:1040C000000802A880E8400C07F560402946FDF78B
:1040D000F7FB41F64815C2F200054FF480604FF43B
:1040E0008051C5E9036005F114004FF4804220239C
:1040F0000EC005F120004FF00067C5F800904FF0AA
:1041000004094FF400084FF4001B80E840062846DD
:10411000C5E90176C5E90B8BFDF7BCFA002818BF8D
:10412000FDF70CF946F258402564AC63C4F2020076
:1041300041F6A8154830C2F20005C5E900074FF462
:10414000806028614FF48050402168614FF48040C6
:10415000C5E90216A861202005F11C0181E841068D
:104160002846C5E90B8BFDF795FA002818BFFDF727
:10417000E5F8312000210022E563AC63FDF70CFD7A
:104180003120FDF7F9FC05B0BDE8F08FF0B587B040
:104190000446A9B194F83400012819D14FF0000C5D
:1041A000C4F838C0E06D1E4613441546834213D947
:1041B000A06B40F00070A063012007B0F0BD00BF0D
:1041C000A06B40F00060A063012007B0F0BD00BF0D
:1041D000022007B0F0BD00BF032084F8340023683C
:1041E000206CC3F82CC0DF6B0A4640F22A313943F9
:1041F000D96346F69531C0F60001C16346F61D311C
:10420000C0F60001C0E9131C0168C0F808C00F68BF
:1042100027F0C0070F60770203F18001BB08FDF7AC
:10422000EBFA98B12068C16B21F49571C16340F23B
:10423000FF51C0F240018163A06B40F08040A06359
:10424000012084F8340007B0F0BD00BF48F28C5064
:10425000C4F2252001210160606C01284FF0FF307D
:1042600018BF6D02CDE90107902003900220049051
:10427000002005902068069101A902F0FBF8022EAB
:1042800006D3822020632068294602F02BFA05E03D
:10429000812020632068294602F030FA0146002878
:1042A0004FF000000DD0226840F2FF53C0F24003EF
:1042B0009363A26B1143A163012184F8341020633E
:1042C000012007B0F0BD000080B5FDF709F880BD02
:1042D00080B5FDF71BF880BDF0B587B00446A9B1E5
:1042E00094F83400012819D14FF0000EC4F838E0DA
:1042F000E06D1E461344834214D9A06B012740F0A1
:104300000070A063384607B0F0BD00BFA06B012766
:1043100040F00060A063384607B0F0BD0227384681
:1043200007B0F0BD032084F834002068E36BD4F8B4
:1043300044C0C0F82CE0C76B0D4640F21A21394347
:10434000C16346F64541C0F60001D96346F61D310A
:10435000C0F60001BCF1010FD96418BF5202022E51
:10436000C3F850E010D3A0212163114602F00AFBEC
:1043700088B1216840F2FF52C0F240028A63A16B0B
:10438000012708432CE000BF90212163114602F071
:1043900005FB0028EDD148F28C50C4F225200127FE
:1043A0000760E06B40220368216882601A68760229
:1043B00067F387121A6001F18002B3082946FDF7FE
:1043C0001BFAA8B1206840F21A22C16B9143C16365
:1043D00040F2FF51C0F240018163A06B40F0804089
:1043E000A063002084F834702063384607B0F0BD25
:1043F0004FF0FF30CDE90106902003900020CDE979
:104400000400206801A9069702F034F80027384616
:1044100007B0F0BD002804BF0120704770B5044606
:1044200090F8490015460E4628B9002084F8480047
:10443000204600F01DF8206804F10801FCF7D0FFC9
:104440002068A2683146FDF70FF8D4E90102236B1A
:104450002946FCF79FFF2068A16850F8212042F010
:10446000010240F82120012084F84900002070BD9D
:104470002DE9F04385B040F23C30C2F200000178F3
:10448000002947D1012101704FF0000943F638009F
:10449000CDF80090C4F20200016840F6004441F0FB
:1044A000010101600068C4F2020400F00100009004
:1044B00000984FF23F006D4600904FF0020803272E
:1044C0000C2604F500602946CDE90189039704967E
:1044D000FDF7F6F941F23F408DE8010304F5406035
:1044E0002946CDE90376FDF7EBF94FF683708DE8A9
:1044F000010304F580602946CDE90376FDF7E0F974
:104500004FF633708DE8010320462946CDE9037646
:10451000FDF7D6F905B0BDE8F08300004EF21001BA
:10452000CEF200010A68042822F0040208BF043217
:104530000A607047411E0020B0EB116F1CBF0120C4
:1045400070474EF21002CEF2000251604EF6235137
:10455000CEF20001F0230B700721906011607047CC
:10456000704700007047000010B590F83C20012A09
:104570004FF0020251D080F83D200268D2F804E0EA
:10458000D2F808C00C682EF07003234341F2FF7488
:10459000C4F20004A24253600EDC40F2FF73C4F286
:1045A00000039A4216DCB2F1804F2BD040F2004358
:1045B000C4F2000324E000BF40F2FF33C4F2010361
:1045C0009A4213DC41F60003C4F200039A4219D068
:1045D000002313E040F60003C4F200039A4211D016
:1045E00040F60043C4F200030AE000BF44F20003B7
:1045F000C4F201039A4205D040F20043C4F2010321
:104600009A4204D149682CF080031943916001213A
:10461000002280F83D1080F83C20104610BD0000BC
:10462000002804BF0120704710B5044690F83D00F3
:1046300028B9002084F83C00204600F01FF8022032
:1046400084F83D002068211D02F03EFD012084F821
:10465000460084F83E0084F83F0084F8400084F867
:10466000410084F8420084F8430084F8440084F850
:10467000450084F83D00002010BD000080B582B0E8
:104680000068B0F1804F1CBF02B080BD00200190D7
:1046900043F64000C4F202000168002241F001012B
:1046A00001600068002100F00100019001981C20C9
:1046B000FDF772FA1C2002B0BDE88040FDF75CBA3D
:1046C00090F83D1001291CBF01207047022180F89D
:1046D0003D10006841F2FF72C168C4F200029042CE
:1046E00041F00101C1600DDC40F2FF71C4F2000134
:1046F000884215DCB0F1804F2AD040F20041C4F26C
:10470000000123E040F2FF31C4F20101884213DCD2
:1047100041F60001C4F20001884219D0002113E0E3
:1047200040F60001C4F20001884211D040F6004179
:10473000C4F200010AE000BF44F20001C4F201012A
:10474000884205D040F20041C4F20101884206D1FE
:10475000816801F00701062904BF00207047016845
:1047600041F00101016000207047000080B590F821
:104770003C20012A4FF0020200F0C28080F83D2068
:10478000D0F800C04FF67772DCF8083023EA020256
:10479000CCF808200B684F2B28DC1F2B44DD202B86
:1047A00045D0302B43D0402B40F0AC80D1F804E012
:1047B000C968DCF82030DCF8202022F00102CCF8B7
:1047C0002020DCF8182022F0F00242EA011123F048
:1047D0000A0242EA0E02CCF81810CCF82020DCF8CD
:1047E000081041F0470121F0300180E06F2B27DDF8
:1047F000B3F5005F48D0B3F5805F7AD0702B40F0FE
:104800008180D1E901E3C968DCF8082043EA0E039E
:1048100022F47F4243EA01211143CCF80810DCF86E
:10482000081041F0770162E00BB1102B6AD1DCF87F
:10483000081021F07001194341F0070157E000BF53
:10484000502B35D0602B5DD1D1F804E0C968DCF87D
:10485000203023F01003CCF82030DCF81830DCF8DE
:10486000202023F4704322F0A00243EA013142EAFF
:104870000E12CCF81810CCF82020DCF8081041F00B
:10488000670121F0100132E0D1E901E3C968DCF8E9
:10489000082043EA0E0322F47F4243EA0121114338
:1048A000CCF80810DCF8081041F480411FE000BF8C
:1048B000D1F804E0C968DCF82030DCF8202022F0D0
:1048C0000102CCF82020DCF8182022F0F00242EAA5
:1048D000011123F00A0242EA0E02CCF81810CCF8BB
:1048E0002020DCF8081041F0570121F02001CCF81D
:1048F00008100022012180F83D10002180F83C10B2
:10490000104680BD0122F5E77047000010B5016830
:1049100004460869800744BFC8685FEA807039D4DC
:104920000869400744BFC8685FEA40703ED4086920
:10493000000744BFC8685FEA007045D40869C00634
:1049400044BFC8685FEAC0604AD40869C0071CBF9A
:10495000C8685FEAC07051D10869000644BFC868E2
:104960005FEA006052D40869400644BFC8685FEA45
:10497000406053D40869800646BFC8685FEA80601B
:1049800010BD6FF0200220460A61BDE81040FFF71D
:10499000E9BD00BF6FF0020008610120207788693F
:1049A000800743D02046FFF7AFFF45E06FF00400DB
:1049B000086102202077886910F4407F40D02046AB
:1049C000FFF7A2FF42E000BF6FF00800086104207B
:1049D0002077C86980073DD02046FFF795FF3FE06C
:1049E0006FF01000086108202077C86910F4407F3C
:1049F0003AD02046FFF788FF3CE000BF6FF001008F
:104A00000861204600F03EF82168A5E76FF08000BD
:104A100008612046FFF7A4FD2168A4E76FF040007D
:104A20000861204600F06CF82168A3E7204600F0FA
:104A300025F8204600F024F82168002020776FE751
:104A4000204600F01BF8204600F01AF821680020EC
:104A500020776CE7204600F011F8204600F010F8AF
:104A600021680020207769E7204600F007F82046FB
:104A700000F006F821680020207766E77047000004
:104A800070470000B0B584B00068B0F1804F01D02D
:104A900004B0B0BD40F2D425C2F20005296814A0CC
:104AA000FBF7DEFC002400202C60FBF73DFE40F20B
:104AB000103040F23031C2F20000C2F200016A68E8
:104AC00000680968002A0860E2D140F20C00C2F2D6
:104AD0000000016803234A1E02601820CDE900048B
:104AE0004720002102940CF023FC04B0B0BD00BFAD
:104AF0004C4344204650533A25640D0A0000000000
:104B000070470000002804BF0120704710B504461C
:104B100090F83D0028B9002084F83C00204600F0C1
:104B200021F8242084F83D002068C16821F4005158
:104B3000C160204602F066FB2068016921F49041C3
:104B40000161416921F02A014161C16841F40051CC
:104B5000C16000202021206484F83D1084F83E10BC
:104B600010BD000080B586B0016841F20000C4F2BB
:104B70000100814202D006B080BD00BF002143F693
:104B800030020191C4F20202536900F5704043F013
:104B900010035361536903F010030193019B0191CA
:104BA000136843F001031360126802F001020192DE
:104BB000019A4FF4C06201920222CDE90221032141
:104BC00004910721059101A9FCF77AFE06B080BD8A
:104BD00041F61470C2F20000FEF79ABBFEE7000037
:104BE0002DE9F04F8FB0834640F600700E46C2F2BA
:104BF0000000114601221F4606F07EF850B1014622
:104C00004CF60A00C0F60200FBF72AFCFF200FB0AA
:104C1000BDE8F08F01A8811C40F60070C2F20000D0
:104C20006B46362206F05CFA80B140F60070C2F2A4
:104C3000000005F053FE40F2DF1040F21F310BF090
:104C40006DFC00200FB0BDE8F08F00BF049940F666
:104C50000070DDE90684C2F2000005F085FE3868C8
:104C600040F2663A00F1D045301940F28009471E03
:104C700008EB0B06C2F2000AC6F600495C4601E0EA
:104C80000028D2D040F60070C2F2000051464FF426
:104C900016626B4606F024FA0028C6D10098002858
:104CA000C3D04FF0000808E0A9F80000009808F110
:104CB0000208804504F10104E2D2B44207D1013F69
:104CC000B9B258460BF02AFC0CF06EFC5C463AF880
:104CD00008004FF6FF718842E6D140F2F821C2F297
:104CE000000108884988FA43114401FB004005EBA4
:104CF0004001497815F8100040EA0120D4E700008F
:104D000070B50446D0F8D40204EB8000D0F8C0524D
:104D1000D5B195F81C02C0B140F24006C2F20006BF
:104D20003178204602F040FE687A022818BF70BD34
:104D30003178204602F038FE40F24100C2F2000015
:104D40000178204602F030FE70BDD5F81802002828
:104D5000E2D0687A0028DFD140F24100C2F20000C0
:104D60000178204602F020FED6E70000B0B50446E8
:104D7000D0F8D40204EB8000D0F8C052DDB3687ADA
:104D8000022810D140F24000C2F200000178204613
:104D900002F00AFE40F24100C2F200000178204613
:104DA00002F002FEB0BD49B2B1F1FF3F23DC0128A1
:104DB00008BFB0BD45F25530C5F24230C5F83002EB
:104DC000012085F83C020020287240F24000C2F227
:104DD0000000017805F50C7220460D2302F012FE4A
:104DE00040F24100C2F20000017805F5047220464D
:104DF0001F2302F03BFDB0BDB0B50446D0F8D4028D
:104E000004EB8000D0F8C0528DB3287AC11E02296D
:104E100021D245F25530C5F2423005F50C72C5F885
:104E20003002002040F24001C2F2000185F83C024D
:104E300000200978287220460D2302F0E3FD40F29D
:104E40004100C2F20000017805F5047220461F23DC
:104E500002F00CFD0BE0022809D195F81D1205F2B5
:104E60001F22204600F0F8FBB0F1FF3F00DDB0BD8F
:104E7000D4F8D40204EB8000D0F8C052002D08BF53
:104E8000B0BD45F25530C5F2423005F50C72C5F89B
:104E900030020120C6E70000B0B50446D0F8D402C5
:104EA00004EB8000D0F8C052E5B3287A01282FD057
:104EB000C0BBD5E98502C5F8340240F24100C2F218
:104EC000000001782046C5F8382202F045FC1F2872
:104ED00011D1D5F8100245F25531C4F24231884261
:104EE00009D195F81D12012905D895F81E0211382F
:104EF00010F1110F44D895F81D12204605222023E9
:104F000001F09AFA022068722046FFF7F9FEB0BD60
:104F100095F81D1205F21F22204600F09DFBB0F10E
:104F2000FF3F00DDB0BDD4F8D40204EB8000D0F820
:104F3000C052002D08BFB0BD45F25530C4F242301A
:104F400000F18050C5F83002012085F83C020020B5
:104F5000287240F24000C2F20000017805F50C72A0
:104F600020460D2302F04EFD40F24100C2F2000047
:104F7000017805F5047220461F2302F077FCB0BDCE
:104F800005F21F22204600F067FB297AB0F1FF3FAF
:104F90000ADD481E0328C5D3EA687AB105F110017D
:104FA000204600F09DF8B0BD2046052903D101211F
:104FB00000F06AF8B0BDFFF7A3FEB0BD20460021A7
:104FC00000F062F8B0BD0000D0F8D41200EB810010
:104FD000D0F8C00200281CBF0021017270470000F9
:104FE00070B50446D0F8D40204EB8000D0F8C0526B
:104FF000002D08BF70BD00212981A5F86012D0F8EE
:10500000C40285F8621202680020904740F241060F
:10501000C2F200063178204602F08CFB40F24000DC
:10502000C2F200000178204602F084FB317805F5D9
:10503000047220461F2302F019FC70BD70B50446AF
:10504000D0F8D40204EB8000D0F8C052002D08BF85
:1050500070BD40F24001C2F200014FF48070097847
:105060002881204602F09AFA40F24106C2F2000678
:105070003178204602F092FA317805F50472204624
:105080001F2302F0F3FB70BDB0B50446D0F8D40284
:1050900004EB8000D0F8C052002D08BFB0BD45F22F
:1050A000553085F83C1240F24001C5F24230C2F260
:1050B0000001C5F830020020097805F50C7228724D
:1050C00020460D2302F09EFC40F24100C2F2000097
:1050D000017805F5047220461F2302F0C7FBB0BD1E
:1050E00080B5D0F8D43200EB8303D3F8C0E2BEF130
:1050F000000F08BF80BD8C46DEF83812DEF818328B
:10510000891A934228BF1346CEF8381200218EF830
:105110003C1240F24001C2F20001042209788EF8EC
:105120000820624602F06EFC80BD000080B582B0AF
:105130000020019043F63000C4F202000168002212
:1051400041F4800101600068022100F480000190B8
:1051500001983B20FCF720FD3B20FCF70DFD45208E
:1051600002210022FCF718FD452002B0BDE8804076
:10517000FCF702BD10B541F2301444F22030C2F207
:105180000004C0F601002146FCF7DEF842F2F4010B
:10519000C2F20001087040F6CC40C2F20000214685
:1051A000012205F055FD20B1014613A0FBF758F987
:1051B00010BD17A0FBF754F941F64470C2F200008D
:1051C00090ED170A90ED181AB8EE400AB8EE411AA1
:1051D0009FED132A20EE010A20EE020A20EE020AB9
:1051E00020EE020A10EE100A0EF058FF02460DA043
:1051F0000B46FBF735F910BD7364206D6F756E7447
:10520000206661696C3A202564200A0D00000000C8
:105210007364206D6F756E74206F6B0A0D00000053
:105220000000803A53442053697A65202566470A76
:105230000D0000002DE9F0478EB041F6C870C2F2B3
:10524000000006210025C0E902154FF480514FF4FB
:105250008042C0E90A15C0E90C25052109AA1026DB
:10526000012762C20F2140F20418CDE90117022183
:1052700003AACAF200084FF020494FF0110A82E851
:10528000420407A96A46C0E90098C0E90456C0E98B
:105290000655C0E908558563456407950897CDE92B
:1052A0000CA500970695FFF7B5F8002818BFFCF786
:1052B00045F842F21804C2F200040420C4E90205D1
:1052C00004F118002421C4E90098C4E90456656477
:1052D000FBF7B5FA07A920460022CDE90757CDE92B
:1052E0000975CDE90B6A0D95FFF794F8002818BFF2
:1052F000FCF724F80EB0BDE8F08700002DE9F0437C
:1053000087B0002643F6300006960196C4F20200EC
:105310000168002441F0040101600168C4F2020444
:1053200001F004010191019901960168002241F008
:10533000200101600168082701F020010191019915
:105340000196016841F080010160016801F080016F
:10535000019101990196016841F001010160016824
:1053600001F00101019101990196016841F04001AC
:105370000160016801F04001019101990196016805
:1053800041F010010160016801F0100101910199E3
:105390000196016841F002010160016801F002011B
:1053A000019101990196016841F0080101600068CE
:1053B000082100F00800019001982046FCF764FBEA
:1053C00004F5806528464FF4004100224FF4004860
:1053D000FCF75AFB4FF00209CDE9049602AE0297A2
:1053E0000127204631460397FCF76AFA28463146E2
:1053F000CDE90287CDE90479FCF762FA07B0BDE890
:10540000F083000080B541F6147040F60001C2F24E
:105410000000C5F206010160FDF7AAFF002808BFE1
:1054200080BDBDE88040FBF789BF000010B586B0A5
:1054300041F6247042F600010024C2F20000C4F2DA
:1054400000017F22C0E9001400F10801CDE9024407
:10545000CDE90044FF231CC1C0E90544FDF7CAFFA4
:10546000002818BFFBF76AFF41F62470C2F2000063
:1054700001A90122ADF804408DF80640CDE90444AD
:10548000FEF702F9002818BFFBF758FF40F20110A1
:10549000C0F20100009041F62470C2F2000069469B
:1054A0000122FEF741F8002818BFFBF747FF06B0BE
:1054B00010BD000041F6447042F60041C2F2000007
:1054C000C4F201010022C0E90012C0E90222C0E9D1
:1054D000042282617047000080B586B042F2680005
:1054E0000021C2F200004FF0804242F2CF0342F2AC
:1054F0000F7C0591CDE90311CDE90011C0E900232E
:10550000C0E9021C01618161FFF78AF8002818BF19
:10551000FBF714FF4FF48050029042F26800C2F291
:10552000000002A9FFF722F9002818BFFBF706FFC9
:1055300042F26800C2F200006946FFF715F8002841
:1055400018BFFBF7FBFE06B080BD000080B542F23D
:10555000B00041F20001C2F20000C4F201010023D8
:105560004FF00C0C4FF4E13280E80E00C0E9033339
:10557000C0E905C3C361FFF7C5FA002808BF80BDB5
:10558000BDE88040FBF7DABE80B541F26C6040F2C6
:105590002401C2F20000C2F20001002201F0E6FF85
:1055A000002818BFFBF7CAFE41F26C6040F2A00170
:1055B000C2F20000C2F2000102F0B8FB002818BFDE
:1055C000FBF7BCFE41F26C6040F20411C2F2000035
:1055D000C2F2000102F01EFB002818BFFBF7AEFE6E
:1055E00041F26C60C2F2000002F0CCFB002818BF50
:1055F000FBF7A4FE80BD0000FEE70000FEE7000010
:1056000041F60820C2F20000FCF7D6BC704700004B
:10561000D0F8D41200EB8100D0F8C002C0B1D0F8AD
:1056200068121A448A429EBF002040B2704790F828
:105630006112052300EBC10282F8403221230131BF
:10564000A2F84432CAB2043A18BF0A4680F861226E
:10565000FF2040B270470000F0B583B00446D0F898
:10566000D40204EB8000D0F8C072002F00F07E80DE
:105670000E46117815469D2900F37C805A2900F2C8
:10568000F381DFE811F05B00F101F1018900F10124
:10569000F101F101F101F101F101F101F101F1017A
:1056A000F101F101F101F101F101B600F101F101A6
:1056B000F101F101F101F101F101DC00F400F1016E
:1056C000F1011201F101F101F101F1011B01F101FF
:1056D0004301F101F1016E01F1017A01F101F101E2
:1056E000F101F1018301F101F101F101F101F10198
:1056F000F101F101F101F101F101F101F101F1011A
:10570000F101F101F101F101F101F101F101F10109
:10571000F101F101F101F101F101F101F101F101F9
:10572000F101F101F101F101F101F101F101F101E9
:10573000F101F101F101F101F101A201D7F8181213
:10574000002900F0C88197F86102052207EBC0012B
:1057500081F8402220220130A1F84422C1B204394C
:1057600018BF014687F86112FF2000E0FF2040B219
:1057700003B0F0BD9E2900F04081A82900F06881A7
:10578000AA2940F07181397A002900F02F82204641
:10579000314600F0E1FDEAE7D7F81802002800F0F2
:1057A000B4810020386178613884F861B86197F875
:1057B000600297F861227021397490424FF00C0119
:1057C000F9750ED007EBC00191F84022B1F84412F0
:1057D0000130B983C1B20439BA7418BF014687F8E1
:1057E00060121220F8602879122898BFF860002013
:1057F000BDE7D7F81812002900F09A816978C90727
:1058000040F03B82D0F8C40206EBC602C06900EB50
:1058100082010B79297905338B4238BF194600295B
:10582000F96000F01B839300184407F10F02431E38
:10583000585C505401394FF00000F9D197E72979AD
:10584000172928BF17210029F96000F0848140F250
:105850005D0307F10F02C2F2000300BF581810F8F1
:10586000010C505401394FF00000F7D17FE797F851
:105870006202012840F00D81287900F0030002281F
:1058800040F0078197F86102052207EBC00181F81B
:10589000402224220130A1F84422C1B2043918BFA9
:1058A000014687F86112FF2061E72879002818BFB8
:1058B000012087F862020020F86058E7D0F8C4029F
:1058C00001A943680DF10A023046984720B997F8BC
:1058D0006202022840F0F681D4F8D40204EB800082
:1058E000D0F8C00280B190F86112022300EBC1022F
:1058F00082F840323A230131A2F84432CAB2043A63
:1059000018BF0A4680F86122FF2030E7D0F8C402B1
:1059100007F51A71436807F519723046984720B9A0
:1059200097F86202022840F0E681D4F8D40204EB32
:105930008000D0F8C002002800F0B88190F8611211
:10594000022300EBC10282F840323A230131A2F86F
:105950004432CAB2043A18BF0A4680F86122FF20D6
:1059600005E7397A002900F0F8804FF40070F860FC
:105970002046314600F08AFCF9E6397A002900F029
:1059800004812046314600F0E7FCF0E668788007A5
:1059900000F18E80D7F87012D7E99A20084490421F
:1059A00040F2888197F86102052207EBC00181F877
:1059B000402221220130A1F84422C1B2043918BF8B
:1059C000014687F86112FF20D1E6297A1B2928BFFA
:1059D0001B210029F96000F0078140F2420307F122
:1059E0000F02C2F2000300BF581810F8010C505407
:1059F00001394FF00000F7D1B9E6D0F8C40207F53D
:105A00001A71436807F519723046984720B997F81C
:105A10006202022840F0A781D4F8D40204EB80008F
:105A2000D0F8C002002800F0438190F861120223F0
:105A300000EBC10282F840323A230131A2F844322D
:105A4000CAB2043A18BF0A4680F86122FF208EE6E7
:105A5000397A002900F0F9804FF40070F860204690
:105A6000314600F013FC82E697F86102052207EB4D
:105A7000C00181F8402220220130A1F84422C1B2A5
:105A8000043918BF0146022087F861127872FF209E
:105A90006DE6287900F0030101294FF0000018BFDE
:105AA000032940F00A8187F862020020F8605EE670
:105AB00097F86102052207EBC00181F840222422F9
:105AC0000130A1F84422C1B2043918BF014687F859
:105AD0006112FF204BE697F86212022940F01F8105
